{
  "contractName": "GameCards",
  "abi": [
    {
      "constant": true,
      "inputs": [
        {
          "name": "",
          "type": "uint8"
        }
      ],
      "name": "cardDetailsStructs",
      "outputs": [
        {
          "name": "id",
          "type": "uint8"
        },
        {
          "name": "price",
          "type": "uint256"
        },
        {
          "name": "priceLease",
          "type": "uint256"
        },
        {
          "name": "leaseDuration",
          "type": "uint256"
        },
        {
          "name": "availableBuy",
          "type": "bool"
        },
        {
          "name": "availableLease",
          "type": "bool"
        }
      ],
      "payable": false,
      "stateMutability": "view",
      "type": "function"
    },
    {
      "constant": true,
      "inputs": [],
      "name": "ownerBuyCut",
      "outputs": [
        {
          "name": "",
          "type": "uint256"
        }
      ],
      "payable": false,
      "stateMutability": "view",
      "type": "function"
    },
    {
      "constant": true,
      "inputs": [
        {
          "name": "",
          "type": "uint256"
        }
      ],
      "name": "cardDetailsList",
      "outputs": [
        {
          "name": "",
          "type": "uint8"
        }
      ],
      "payable": false,
      "stateMutability": "view",
      "type": "function"
    },
    {
      "constant": true,
      "inputs": [],
      "name": "fluffyCatAddress",
      "outputs": [
        {
          "name": "",
          "type": "address"
        }
      ],
      "payable": false,
      "stateMutability": "view",
      "type": "function"
    },
    {
      "constant": true,
      "inputs": [],
      "name": "fluffyCatCut",
      "outputs": [
        {
          "name": "",
          "type": "uint256"
        }
      ],
      "payable": false,
      "stateMutability": "view",
      "type": "function"
    },
    {
      "constant": true,
      "inputs": [],
      "name": "initialCardPrice",
      "outputs": [
        {
          "name": "",
          "type": "uint256"
        }
      ],
      "payable": false,
      "stateMutability": "view",
      "type": "function"
    },
    {
      "constant": true,
      "inputs": [],
      "name": "contractOwner",
      "outputs": [
        {
          "name": "",
          "type": "address"
        }
      ],
      "payable": false,
      "stateMutability": "view",
      "type": "function"
    },
    {
      "constant": true,
      "inputs": [
        {
          "name": "",
          "type": "uint8"
        }
      ],
      "name": "cardStructs",
      "outputs": [
        {
          "name": "id",
          "type": "uint8"
        },
        {
          "name": "owner",
          "type": "address"
        },
        {
          "name": "title",
          "type": "string"
        },
        {
          "name": "url",
          "type": "string"
        },
        {
          "name": "image",
          "type": "string"
        },
        {
          "name": "nsfw",
          "type": "bool"
        }
      ],
      "payable": false,
      "stateMutability": "view",
      "type": "function"
    },
    {
      "constant": true,
      "inputs": [
        {
          "name": "",
          "type": "uint256"
        }
      ],
      "name": "cardList",
      "outputs": [
        {
          "name": "",
          "type": "uint8"
        }
      ],
      "payable": false,
      "stateMutability": "view",
      "type": "function"
    },
    {
      "constant": true,
      "inputs": [
        {
          "name": "",
          "type": "address"
        }
      ],
      "name": "pendingWithdrawals",
      "outputs": [
        {
          "name": "",
          "type": "uint256"
        }
      ],
      "payable": false,
      "stateMutability": "view",
      "type": "function"
    },
    {
      "inputs": [
        {
          "name": "_contractOwner",
          "type": "address"
        }
      ],
      "payable": false,
      "stateMutability": "nonpayable",
      "type": "constructor"
    },
    {
      "constant": true,
      "inputs": [],
      "name": "getCards",
      "outputs": [
        {
          "name": "",
          "type": "uint8[]"
        }
      ],
      "payable": false,
      "stateMutability": "view",
      "type": "function"
    },
    {
      "constant": true,
      "inputs": [],
      "name": "getCardsDetails",
      "outputs": [
        {
          "name": "",
          "type": "uint8[]"
        }
      ],
      "payable": false,
      "stateMutability": "view",
      "type": "function"
    },
    {
      "constant": true,
      "inputs": [
        {
          "name": "cardId",
          "type": "uint8"
        }
      ],
      "name": "getCardDetails",
      "outputs": [
        {
          "name": "id",
          "type": "uint8"
        },
        {
          "name": "price",
          "type": "uint256"
        },
        {
          "name": "priceLease",
          "type": "uint256"
        },
        {
          "name": "leaseDuration",
          "type": "uint256"
        },
        {
          "name": "availableBuy",
          "type": "bool"
        },
        {
          "name": "availableLease",
          "type": "bool"
        }
      ],
      "payable": false,
      "stateMutability": "view",
      "type": "function"
    },
    {
      "constant": true,
      "inputs": [
        {
          "name": "cardId",
          "type": "uint8"
        }
      ],
      "name": "getCard",
      "outputs": [
        {
          "name": "id",
          "type": "uint8"
        },
        {
          "name": "owner",
          "type": "address"
        },
        {
          "name": "title",
          "type": "string"
        },
        {
          "name": "url",
          "type": "string"
        },
        {
          "name": "image",
          "type": "string"
        },
        {
          "name": "nsfw",
          "type": "bool"
        }
      ],
      "payable": false,
      "stateMutability": "view",
      "type": "function"
    },
    {
      "constant": false,
      "inputs": [
        {
          "name": "cardId",
          "type": "uint8"
        },
        {
          "name": "title",
          "type": "string"
        },
        {
          "name": "url",
          "type": "string"
        },
        {
          "name": "image",
          "type": "string"
        }
      ],
      "name": "initialBuyCard",
      "outputs": [
        {
          "name": "success",
          "type": "bool"
        }
      ],
      "payable": true,
      "stateMutability": "payable",
      "type": "function"
    },
    {
      "constant": false,
      "inputs": [
        {
          "name": "cardId",
          "type": "uint8"
        },
        {
          "name": "title",
          "type": "string"
        },
        {
          "name": "url",
          "type": "string"
        },
        {
          "name": "image",
          "type": "string"
        }
      ],
      "name": "buyCard",
      "outputs": [
        {
          "name": "success",
          "type": "bool"
        }
      ],
      "payable": true,
      "stateMutability": "payable",
      "type": "function"
    },
    {
      "constant": false,
      "inputs": [
        {
          "name": "cardId",
          "type": "uint8"
        },
        {
          "name": "title",
          "type": "string"
        },
        {
          "name": "url",
          "type": "string"
        },
        {
          "name": "image",
          "type": "string"
        }
      ],
      "name": "editCard",
      "outputs": [
        {
          "name": "success",
          "type": "bool"
        }
      ],
      "payable": false,
      "stateMutability": "nonpayable",
      "type": "function"
    },
    {
      "constant": false,
      "inputs": [
        {
          "name": "cardId",
          "type": "uint8"
        },
        {
          "name": "price",
          "type": "uint256"
        }
      ],
      "name": "sellCard",
      "outputs": [
        {
          "name": "success",
          "type": "bool"
        }
      ],
      "payable": false,
      "stateMutability": "nonpayable",
      "type": "function"
    },
    {
      "constant": false,
      "inputs": [
        {
          "name": "cardId",
          "type": "uint8"
        }
      ],
      "name": "cancelSellCard",
      "outputs": [
        {
          "name": "success",
          "type": "bool"
        }
      ],
      "payable": false,
      "stateMutability": "nonpayable",
      "type": "function"
    },
    {
      "constant": false,
      "inputs": [
        {
          "name": "cardId",
          "type": "uint8"
        },
        {
          "name": "priceLease",
          "type": "uint256"
        },
        {
          "name": "leaseDuration",
          "type": "uint256"
        }
      ],
      "name": "setLeaseCard",
      "outputs": [
        {
          "name": "success",
          "type": "bool"
        }
      ],
      "payable": false,
      "stateMutability": "nonpayable",
      "type": "function"
    },
    {
      "constant": false,
      "inputs": [
        {
          "name": "cardId",
          "type": "uint8"
        }
      ],
      "name": "cancelLeaseOffer",
      "outputs": [
        {
          "name": "success",
          "type": "bool"
        }
      ],
      "payable": false,
      "stateMutability": "nonpayable",
      "type": "function"
    },
    {
      "constant": false,
      "inputs": [
        {
          "name": "cardId",
          "type": "uint8"
        },
        {
          "name": "title",
          "type": "string"
        },
        {
          "name": "url",
          "type": "string"
        },
        {
          "name": "image",
          "type": "string"
        }
      ],
      "name": "leaseCard",
      "outputs": [
        {
          "name": "success",
          "type": "bool"
        }
      ],
      "payable": true,
      "stateMutability": "payable",
      "type": "function"
    },
    {
      "constant": true,
      "inputs": [
        {
          "name": "cardId",
          "type": "uint8"
        }
      ],
      "name": "getLastLease",
      "outputs": [
        {
          "name": "leaseIndex",
          "type": "uint256"
        },
        {
          "name": "tenant",
          "type": "address"
        },
        {
          "name": "untilBlock",
          "type": "uint256"
        },
        {
          "name": "title",
          "type": "string"
        },
        {
          "name": "url",
          "type": "string"
        },
        {
          "name": "image",
          "type": "string"
        }
      ],
      "payable": false,
      "stateMutability": "view",
      "type": "function"
    },
    {
      "constant": true,
      "inputs": [
        {
          "name": "cardId",
          "type": "uint8"
        },
        {
          "name": "leaseId",
          "type": "uint256"
        }
      ],
      "name": "getLease",
      "outputs": [
        {
          "name": "leaseIndex",
          "type": "uint256"
        },
        {
          "name": "tenant",
          "type": "address"
        },
        {
          "name": "untilBlock",
          "type": "uint256"
        },
        {
          "name": "title",
          "type": "string"
        },
        {
          "name": "url",
          "type": "string"
        },
        {
          "name": "image",
          "type": "string"
        }
      ],
      "payable": false,
      "stateMutability": "view",
      "type": "function"
    },
    {
      "constant": true,
      "inputs": [
        {
          "name": "cardId",
          "type": "uint8"
        }
      ],
      "name": "getCardLeaseLength",
      "outputs": [
        {
          "name": "cardLeasesCount",
          "type": "uint256"
        }
      ],
      "payable": false,
      "stateMutability": "view",
      "type": "function"
    },
    {
      "constant": false,
      "inputs": [
        {
          "name": "to",
          "type": "address"
        },
        {
          "name": "cardId",
          "type": "uint8"
        }
      ],
      "name": "transferCardOwnership",
      "outputs": [
        {
          "name": "success",
          "type": "bool"
        }
      ],
      "payable": false,
      "stateMutability": "nonpayable",
      "type": "function"
    },
    {
      "constant": true,
      "inputs": [],
      "name": "getBalance",
      "outputs": [
        {
          "name": "amount",
          "type": "uint256"
        }
      ],
      "payable": false,
      "stateMutability": "view",
      "type": "function"
    },
    {
      "constant": false,
      "inputs": [],
      "name": "withdraw",
      "outputs": [
        {
          "name": "",
          "type": "bool"
        }
      ],
      "payable": false,
      "stateMutability": "nonpayable",
      "type": "function"
    },
    {
      "constant": true,
      "inputs": [
        {
          "name": "cardId",
          "type": "uint8"
        }
      ],
      "name": "computeInitialPrice",
      "outputs": [
        {
          "name": "price",
          "type": "uint256"
        }
      ],
      "payable": false,
      "stateMutability": "view",
      "type": "function"
    },
    {
      "constant": false,
      "inputs": [
        {
          "name": "cardId",
          "type": "uint8"
        },
        {
          "name": "flag",
          "type": "bool"
        }
      ],
      "name": "setNSFW",
      "outputs": [
        {
          "name": "success",
          "type": "bool"
        }
      ],
      "payable": false,
      "stateMutability": "nonpayable",
      "type": "function"
    }
  ],
  "bytecode": "0x6060604052670de0b6b3a764000060055560646006556103e8600755732c00a5013aa2e600663f7b197c98db73ba847e6d600960006101000a81548173ffffffffffffffffffffffffffffffffffffffff021916908373ffffffffffffffffffffffffffffffffffffffff160217905550341561007b57600080fd5b6040516020806130e783398101604052808051906020019091905050600073ffffffffffffffffffffffffffffffffffffffff168173ffffffffffffffffffffffffffffffffffffffff16141515156100d357600080fd5b80600860006101000a81548173ffffffffffffffffffffffffffffffffffffffff021916908373ffffffffffffffffffffffffffffffffffffffff16021790555050612fc3806101246000396000f300606060405260043610610180576000357c0100000000000000000000000000000000000000000000000000000000900463ffffffff16806307806b191461018557806309004eb1146101f057806312065fe0146103b25780631a9e3e18146103db5780632cefc429146104045780633ccfd60b1461044b57806344fd584d14610478578063459a2192146104b657806373cb0620146104f3578063771acf311461054857806379081feb146105715780637b65d0ec146105ab5780637db33f99146106a75780638014f238146106f75780638df793d6146107fe5780638f6f3275146108fa578063a7f58c2414610abb578063b0df9e5314610af5578063b7b2a00914610b5f578063ba0bc2f414610bca578063bc2fe07b14610bf3578063c02d014014610c50578063ce606ee014610d4c578063cf4e964a14610da1578063d5bd57a114610fba578063d9f035aa14611024578063e6591f4e14611061578063ec591b20146110aa578063f0d8e968146110e8578063f3f43703146112a0575b600080fd5b341561019057600080fd5b6101a9600480803560ff169060200190919050506112ed565b604051808760ff1660ff1681526020018681526020018581526020018481526020018315151515815260200182151515158152602001965050505050505060405180910390f35b34156101fb57600080fd5b610214600480803560ff16906020019091905050611350565b604051808760ff1660ff1681526020018673ffffffffffffffffffffffffffffffffffffffff1673ffffffffffffffffffffffffffffffffffffffff16815260200180602001806020018060200185151515158152602001848103845288818151815260200191508051906020019080838360005b838110156102a4578082015181840152602081019050610289565b50505050905090810190601f1680156102d15780820380516001836020036101000a031916815260200191505b50848103835287818151815260200191508051906020019080838360005b8381101561030a5780820151818401526020810190506102ef565b50505050905090810190601f1680156103375780820380516001836020036101000a031916815260200191505b50848103825286818151815260200191508051906020019080838360005b83811015610370578082015181840152602081019050610355565b50505050905090810190601f16801561039d5780820380516001836020036101000a031916815260200191505b50995050505050505050505060405180910390f35b34156103bd57600080fd5b6103c56115e4565b6040518082815260200191505060405180910390f35b34156103e657600080fd5b6103ee61162a565b6040518082815260200191505060405180910390f35b341561040f57600080fd5b610431600480803560ff16906020019091908035906020019091905050611630565b604051808215151515815260200191505060405180910390f35b341561045657600080fd5b61045e61172f565b604051808215151515815260200191505060405180910390f35b341561048357600080fd5b61049c600480803560ff169060200190919050506117ff565b604051808215151515815260200191505060405180910390f35b34156104c157600080fd5b6104d760048080359060200190919050506118dc565b604051808260ff1660ff16815260200191505060405180910390f35b34156104fe57600080fd5b61050661190f565b604051808273ffffffffffffffffffffffffffffffffffffffff1673ffffffffffffffffffffffffffffffffffffffff16815260200191505060405180910390f35b341561055357600080fd5b61055b611935565b6040518082815260200191505060405180910390f35b341561057c57600080fd5b610595600480803560ff1690602001909190505061193b565b6040518082815260200191505060405180910390f35b61068d600480803560ff1690602001909190803590602001908201803590602001908080601f0160208091040260200160405190810160405280939291908181526020018383808284378201915050505050509190803590602001908201803590602001908080601f0160208091040260200160405190810160405280939291908181526020018383808284378201915050505050509190803590602001908201803590602001908080601f01602080910402602001604051908101604052809392919081815260200183838082843782019150505050505091905050611964565b604051808215151515815260200191505060405180910390f35b34156106b257600080fd5b6106dd600480803560ff16906020019091908035906020019091908035906020019091905050611b0e565b604051808215151515815260200191505060405180910390f35b341561070257600080fd5b6107e4600480803560ff1690602001909190803590602001908201803590602001908080601f0160208091040260200160405190810160405280939291908181526020018383808284378201915050505050509190803590602001908201803590602001908080601f0160208091040260200160405190810160405280939291908181526020018383808284378201915050505050509190803590602001908201803590602001908080601f01602080910402602001604051908101604052809392919081815260200183838082843782019150505050505091905050611cb6565b604051808215151515815260200191505060405180910390f35b6108e0600480803560ff1690602001909190803590602001908201803590602001908080601f0160208091040260200160405190810160405280939291908181526020018383808284378201915050505050509190803590602001908201803590602001908080601f0160208091040260200160405190810160405280939291908181526020018383808284378201915050505050509190803590602001908201803590602001908080601f01602080910402602001604051908101604052809392919081815260200183838082843782019150505050505091905050611d6f565b604051808215151515815260200191505060405180910390f35b341561090557600080fd5b610927600480803560ff16906020019091908035906020019091905050612012565b604051808781526020018673ffffffffffffffffffffffffffffffffffffffff1673ffffffffffffffffffffffffffffffffffffffff168152602001858152602001806020018060200180602001848103845287818151815260200191508051906020019080838360005b838110156109ad578082015181840152602081019050610992565b50505050905090810190601f1680156109da5780820380516001836020036101000a031916815260200191505b50848103835286818151815260200191508051906020019080838360005b83811015610a135780820151818401526020810190506109f8565b50505050905090810190601f168015610a405780820380516001836020036101000a031916815260200191505b50848103825285818151815260200191508051906020019080838360005b83811015610a79578082015181840152602081019050610a5e565b50505050905090810190601f168015610aa65780820380516001836020036101000a031916815260200191505b50995050505050505050505060405180910390f35b3415610ac657600080fd5b610adf600480803560ff1690602001909190505061235c565b6040518082815260200191505060405180910390f35b3415610b0057600080fd5b610b086123a5565b6040518080602001828103825283818151815260200191508051906020019060200280838360005b83811015610b4b578082015181840152602081019050610b30565b505050509050019250505060405180910390f35b3415610b6a57600080fd5b610b83600480803560ff1690602001909190505061243d565b604051808760ff1660ff1681526020018681526020018581526020018481526020018315151515815260200182151515158152602001965050505050505060405180910390f35b3415610bd557600080fd5b610bdd61253f565b6040518082815260200191505060405180910390f35b3415610bfe57600080fd5b610c36600480803573ffffffffffffffffffffffffffffffffffffffff1690602001909190803560ff16906020019091905050612545565b604051808215151515815260200191505060405180910390f35b610d32600480803560ff1690602001909190803590602001908201803590602001908080601f0160208091040260200160405190810160405280939291908181526020018383808284378201915050505050509190803590602001908201803590602001908080601f0160208091040260200160405190810160405280939291908181526020018383808284378201915050505050509190803590602001908201803590602001908080601f01602080910402602001604051908101604052809392919081815260200183838082843782019150505050505091905050612624565b604051808215151515815260200191505060405180910390f35b3415610d5757600080fd5b610d5f61281e565b604051808273ffffffffffffffffffffffffffffffffffffffff1673ffffffffffffffffffffffffffffffffffffffff16815260200191505060405180910390f35b3415610dac57600080fd5b610dc5600480803560ff16906020019091905050612844565b604051808760ff1660ff1681526020018673ffffffffffffffffffffffffffffffffffffffff1673ffffffffffffffffffffffffffffffffffffffff16815260200180602001806020018060200185151515158152602001848103845288818154600181600116156101000203166002900481526020019150805460018160011615610100020316600290048015610e9e5780601f10610e7357610100808354040283529160200191610e9e565b820191906000526020600020905b815481529060010190602001808311610e8157829003601f168201915b5050848103835287818154600181600116156101000203166002900481526020019150805460018160011615610100020316600290048015610f215780601f10610ef657610100808354040283529160200191610f21565b820191906000526020600020905b815481529060010190602001808311610f0457829003601f168201915b5050848103825286818154600181600116156101000203166002900481526020019150805460018160011615610100020316600290048015610fa45780601f10610f7957610100808354040283529160200191610fa4565b820191906000526020600020905b815481529060010190602001808311610f8757829003601f168201915b5050995050505050505050505060405180910390f35b3415610fc557600080fd5b610fcd6128b7565b6040518080602001828103825283818151815260200191508051906020019060200280838360005b83811015611010578082015181840152602081019050610ff5565b505050509050019250505060405180910390f35b341561102f57600080fd5b611045600480803590602001909190505061294f565b604051808260ff1660ff16815260200191505060405180910390f35b341561106c57600080fd5b611090600480803560ff169060200190919080351515906020019091905050612982565b604051808215151515815260200191505060405180910390f35b34156110b557600080fd5b6110ce600480803560ff16906020019091905050612a43565b604051808215151515815260200191505060405180910390f35b34156110f357600080fd5b61110c600480803560ff16906020019091905050612b20565b604051808781526020018673ffffffffffffffffffffffffffffffffffffffff1673ffffffffffffffffffffffffffffffffffffffff168152602001858152602001806020018060200180602001848103845287818151815260200191508051906020019080838360005b83811015611192578082015181840152602081019050611177565b50505050905090810190601f1680156111bf5780820380516001836020036101000a031916815260200191505b50848103835286818151815260200191508051906020019080838360005b838110156111f85780820151818401526020810190506111dd565b50505050905090810190601f1680156112255780820380516001836020036101000a031916815260200191505b50848103825285818151815260200191508051906020019080838360005b8381101561125e578082015181840152602081019050611243565b50505050905090810190601f16801561128b5780820380516001836020036101000a031916815260200191505b50995050505050505050505060405180910390f35b34156112ab57600080fd5b6112d7600480803573ffffffffffffffffffffffffffffffffffffffff16906020019091905050612b6a565b6040518082815260200191505060405180910390f35b60036020528060005260406000206000915090508060000160009054906101000a900460ff16908060010154908060020154908060030154908060040160009054906101000a900460ff16908060040160019054906101000a900460ff16905086565b60008061135b612e64565b611363612e64565b61136b612e64565b6000808760018160ff1610158015611387575060648160ff1611155b151561139257600080fd5b600160008a60ff1660ff16815260200190815260200160002091508160000160009054906101000a900460ff1697508160000160019054906101000a900473ffffffffffffffffffffffffffffffffffffffff169650816001018054600181600116156101000203166002900480601f0160208091040260200160405190810160405280929190818152602001828054600181600116156101000203166002900480156114805780601f1061145557610100808354040283529160200191611480565b820191906000526020600020905b81548152906001019060200180831161146357829003601f168201915b50505050509550816002018054600181600116156101000203166002900480601f01602080910402602001604051908101604052809291908181526020018280546001816001161561010002031660029004801561151f5780601f106114f45761010080835404028352916020019161151f565b820191906000526020600020905b81548152906001019060200180831161150257829003601f168201915b50505050509450816003018054600181600116156101000203166002900480601f0160208091040260200160405190810160405280929190818152602001828054600181600116156101000203166002900480156115be5780601f10611593576101008083540402835291602001916115be565b820191906000526020600020905b8154815290600101906020018083116115a157829003601f168201915b505050505093508160040160009054906101000a900460ff169250505091939550919395565b60008060003373ffffffffffffffffffffffffffffffffffffffff1673ffffffffffffffffffffffffffffffffffffffff16815260200190815260200160002054905090565b60065481565b60008260018160ff161015801561164b575060648160ff1611155b151561165657600080fd5b83600160008260ff1660ff16815260200190815260200160002060000160019054906101000a900473ffffffffffffffffffffffffffffffffffffffff1673ffffffffffffffffffffffffffffffffffffffff163373ffffffffffffffffffffffffffffffffffffffff161415156116cd57600080fd5b83600360008760ff1660ff168152602001908152602001600020600101819055506001600360008760ff1660ff16815260200190815260200160002060040160006101000a81548160ff02191690831515021790555060019250505092915050565b6000806000803373ffffffffffffffffffffffffffffffffffffffff1673ffffffffffffffffffffffffffffffffffffffff16815260200190815260200160002054905060008060003373ffffffffffffffffffffffffffffffffffffffff1673ffffffffffffffffffffffffffffffffffffffff168152602001908152602001600020819055503373ffffffffffffffffffffffffffffffffffffffff166108fc829081150290604051600060405180830381858888f1935050505015156117f757600080fd5b600191505090565b60008160018160ff161015801561181a575060648160ff1611155b151561182557600080fd5b82600160008260ff1660ff16815260200190815260200160002060000160019054906101000a900473ffffffffffffffffffffffffffffffffffffffff1673ffffffffffffffffffffffffffffffffffffffff163373ffffffffffffffffffffffffffffffffffffffff1614151561189c57600080fd5b6000600360008660ff1660ff16815260200190815260200160002060040160016101000a81548160ff021916908315150217905550600192505050919050565b6004818154811015156118eb57fe5b9060005260206000209060209182820401919006915054906101000a900460ff1681565b600960009054906101000a900473ffffffffffffffffffffffffffffffffffffffff1681565b60075481565b6000600360008360ff1660ff168152602001908152602001600020600501805490509050919050565b6000808560018160ff1610158015611980575060648160ff1611155b151561198b57600080fd5b6119948761235c565b91508134101515156119a557600080fd5b600073ffffffffffffffffffffffffffffffffffffffff16600160008960ff1660ff16815260200190815260200160002060000160019054906101000a900473ffffffffffffffffffffffffffffffffffffffff1673ffffffffffffffffffffffffffffffffffffffff16141515611a1c57600080fd5b611a298733888888612b82565b506000600160008960ff1660ff16815260200190815260200160002060040160006101000a81548160ff021916908315150217905550611ab0600860009054906101000a900473ffffffffffffffffffffffffffffffffffffffff16600960009054906101000a900473ffffffffffffffffffffffffffffffffffffffff16600754612c7f565b50611abb8783612d3a565b5060028054806001018281611ad09190612e78565b916000526020600020906020918282040191900689909190916101000a81548160ff021916908360ff16021790555050600192505050949350505050565b60008060008560018160ff1610158015611b2c575060648160ff1611155b1515611b3757600080fd5b86600160008260ff1660ff16815260200190815260200160002060000160019054906101000a900473ffffffffffffffffffffffffffffffffffffffff1673ffffffffffffffffffffffffffffffffffffffff163373ffffffffffffffffffffffffffffffffffffffff16141515611bae57600080fd5b600360008960ff1660ff16815260200190815260200160002060040160009054906101000a900460ff16151515611be457600080fd5b611bed8861193b565b9350600360008960ff1660ff16815260200190815260200160002060060160008581526020019081526020016000206003015492504383101515611c3057600080fd5b86600360008a60ff1660ff168152602001908152602001600020600201819055506001600360008a60ff1660ff16815260200190815260200160002060040160016101000a81548160ff02191690831515021790555085600360008a60ff1660ff1681526020019081526020016000206003018190555060019450505050509392505050565b60008460018160ff1610158015611cd1575060648160ff1611155b1515611cdc57600080fd5b85600160008260ff1660ff16815260200190815260200160002060000160019054906101000a900473ffffffffffffffffffffffffffffffffffffffff1673ffffffffffffffffffffffffffffffffffffffff163373ffffffffffffffffffffffffffffffffffffffff16141515611d5357600080fd5b611d608733888888612b82565b50600192505050949350505050565b60008060008060008060008060008c60018160ff1610158015611d96575060648160ff1611155b1515611da157600080fd5b600360008f60ff1660ff16815260200190815260200160002098508860040160019054906101000a900460ff161515611dd957600080fd5b88600201549750886003015496508688029550853410151515611dfb57600080fd5b6001611e068f61193b565b0194508643019350600160008f60ff1660ff16815260200190815260200160002092508260000160019054906101000a900473ffffffffffffffffffffffffffffffffffffffff169150611e7f82600860009054906101000a900473ffffffffffffffffffffffffffffffffffffffff16600654612c7f565b5084896006016000878152602001908152602001600020600001819055503389600601600087815260200190815260200160002060010160006101000a81548173ffffffffffffffffffffffffffffffffffffffff021916908373ffffffffffffffffffffffffffffffffffffffff160217905550858960060160008781526020019081526020016000206002018190555083896006016000878152602001908152602001600020600301819055508c8960060160008781526020019081526020016000206004019080519060200190611f5a929190612eb2565b508b8960060160008781526020019081526020016000206005019080519060200190611f87929190612eb2565b508a8960060160008781526020019081526020016000206006019080519060200190611fb4929190612eb2565b5060008960040160016101000a81548160ff021916908315150217905550886005018054806001018281611fe89190612f32565b91600052602060002090016000879091909150555060019950505050505050505050949350505050565b600080600061201f612e64565b612027612e64565b61202f612e64565b600360008960ff1660ff168152602001908152602001600020600601600088815260200190815260200160002060000154600360008a60ff1660ff168152602001908152602001600020600601600089815260200190815260200160002060010160009054906101000a900473ffffffffffffffffffffffffffffffffffffffff16600360008b60ff1660ff16815260200190815260200160002060060160008a815260200190815260200160002060030154600360008c60ff1660ff16815260200190815260200160002060060160008b8152602001908152602001600020600401600360008d60ff1660ff16815260200190815260200160002060060160008c8152602001908152602001600020600501600360008e60ff1660ff16815260200190815260200160002060060160008d8152602001908152602001600020600601828054600181600116156101000203166002900480601f0160208091040260200160405190810160405280929190818152602001828054600181600116156101000203166002900480156122075780601f106121dc57610100808354040283529160200191612207565b820191906000526020600020905b8154815290600101906020018083116121ea57829003601f168201915b50505050509250818054600181600116156101000203166002900480601f0160208091040260200160405190810160405280929190818152602001828054600181600116156101000203166002900480156122a35780601f10612278576101008083540402835291602001916122a3565b820191906000526020600020905b81548152906001019060200180831161228657829003601f168201915b50505050509150808054600181600116156101000203166002900480601f01602080910402602001604051908101604052809291908181526020018280546001816001161561010002031660029004801561233f5780601f106123145761010080835404028352916020019161233f565b820191906000526020600020905b81548152906001019060200180831161232257829003601f168201915b505050505090509550955095509550955095509295509295509295565b60008160018160ff1610158015612377575060648160ff1611155b151561238257600080fd5b60018360ff1603606460055481151561239757fe5b040260055403915050919050565b6123ad612f5e565b6123b5612f5e565b6000806002805490506040518059106123cb5750595b9080825280602002602001820160405250925060009150600090505b6002805490508160ff1610156124345780838360ff1681518110151561240957fe5b9060200190602002019060ff16908160ff1681525050818060010192505080806001019150506123e7565b82935050505090565b6000806000806000806000808860018160ff1610158015612462575060648160ff1611155b151561246d57600080fd5b6000600360008c60ff1660ff16815260200190815260200160002060000160009054906101000a900460ff1660ff1614806124ce5750600360008b60ff1660ff16815260200190815260200160002060040160009054906101000a900460ff165b156124d857600192505b600360008b60ff1660ff16815260200190815260200160002091508160000160009054906101000a900460ff16826001015483600201548460030154868660040160019054906101000a900460ff1698509850985098509850985050505091939550919395565b60055481565b600081600160008260ff1660ff16815260200190815260200160002060000160019054906101000a900473ffffffffffffffffffffffffffffffffffffffff1673ffffffffffffffffffffffffffffffffffffffff163373ffffffffffffffffffffffffffffffffffffffff161415156125be57600080fd5b83600160008560ff1660ff16815260200190815260200160002060000160016101000a81548173ffffffffffffffffffffffffffffffffffffffff021916908373ffffffffffffffffffffffffffffffffffffffff160217905550600191505092915050565b60008060008660018160ff1610158015612642575060648160ff1611155b151561264d57600080fd5b600073ffffffffffffffffffffffffffffffffffffffff16600160008a60ff1660ff16815260200190815260200160002060000160019054906101000a900473ffffffffffffffffffffffffffffffffffffffff1673ffffffffffffffffffffffffffffffffffffffff16141515156126c557600080fd5b600360008960ff1660ff16815260200190815260200160002060040160009054906101000a900460ff1615156126fa57600080fd5b600360008960ff1660ff16815260200190815260200160002060010154925082341015151561272857600080fd5b600160008960ff1660ff16815260200190815260200160002060000160019054906101000a900473ffffffffffffffffffffffffffffffffffffffff16915061279682600860009054906101000a900473ffffffffffffffffffffffffffffffffffffffff16600654612c7f565b506127a48833898989612b82565b506000600160008a60ff1660ff16815260200190815260200160002060040160006101000a81548160ff0219169083151502179055506000600360008a60ff1660ff16815260200190815260200160002060040160006101000a81548160ff02191690831515021790555060019350505050949350505050565b600860009054906101000a900473ffffffffffffffffffffffffffffffffffffffff1681565b60016020528060005260406000206000915090508060000160009054906101000a900460ff16908060000160019054906101000a900473ffffffffffffffffffffffffffffffffffffffff16908060010190806002019080600301908060040160009054906101000a900460ff16905086565b6128bf612f5e565b6128c7612f5e565b6000806004805490506040518059106128dd5750595b9080825280602002602001820160405250925060009150600090505b6004805490508160ff1610156129465780838360ff1681518110151561291b57fe5b9060200190602002019060ff16908160ff1681525050818060010192505080806001019150506128f9565b82935050505090565b60028181548110151561295e57fe5b9060005260206000209060209182820401919006915054906101000a900460ff1681565b60008260018160ff161015801561299d575060648160ff1611155b15156129a857600080fd5b600860009054906101000a900473ffffffffffffffffffffffffffffffffffffffff1673ffffffffffffffffffffffffffffffffffffffff163373ffffffffffffffffffffffffffffffffffffffff16141515612a0457600080fd5b82600160008660ff1660ff16815260200190815260200160002060040160006101000a81548160ff021916908315150217905550600191505092915050565b60008160018160ff1610158015612a5e575060648160ff1611155b1515612a6957600080fd5b82600160008260ff1660ff16815260200190815260200160002060000160019054906101000a900473ffffffffffffffffffffffffffffffffffffffff1673ffffffffffffffffffffffffffffffffffffffff163373ffffffffffffffffffffffffffffffffffffffff16141515612ae057600080fd5b6000600360008660ff1660ff16815260200190815260200160002060040160006101000a81548160ff021916908315150217905550600192505050919050565b6000806000612b2d612e64565b612b35612e64565b612b3d612e64565b6000612b488861193b565b9050612b548882612012565b9650965096509650965096505091939550919395565b60006020528060005260406000206000915090505481565b600084600160008860ff1660ff16815260200190815260200160002060000160016101000a81548173ffffffffffffffffffffffffffffffffffffffff021916908373ffffffffffffffffffffffffffffffffffffffff16021790555083600160008860ff1660ff1681526020019081526020016000206001019080519060200190612c0f929190612eb2565b5082600160008860ff1660ff1681526020019081526020016000206002019080519060200190612c40929190612eb2565b5081600160008860ff1660ff1681526020019081526020016000206003019080519060200190612c71929190612eb2565b506001905095945050505050565b6000806000612c8e3485612e4a565b91508134039050806000808873ffffffffffffffffffffffffffffffffffffffff1673ffffffffffffffffffffffffffffffffffffffff16815260200190815260200160002060008282540192505081905550816000808773ffffffffffffffffffffffffffffffffffffffff1673ffffffffffffffffffffffffffffffffffffffff168152602001908152602001600020600082825401925050819055506001925050509392505050565b600082600360008560ff1660ff16815260200190815260200160002060000160006101000a81548160ff021916908360ff16021790555081600360008560ff1660ff168152602001908152602001600020600101819055506000600360008560ff1660ff16815260200190815260200160002060040160006101000a81548160ff0219169083151502179055506000600360008560ff1660ff16815260200190815260200160002060040160016101000a81548160ff02191690831515021790555060048054806001018281612e109190612e78565b916000526020600020906020918282040191900685909190916101000a81548160ff021916908360ff160217905550506001905092915050565b6000612710828402811515612e5b57fe5b04905092915050565b602060405190810160405280600081525090565b815481835581811511612ead57601f016020900481601f01602090048360005260206000209182019101612eac9190612f72565b5b505050565b828054600181600116156101000203166002900490600052602060002090601f016020900481019282601f10612ef357805160ff1916838001178555612f21565b82800160010185558215612f21579182015b82811115612f20578251825591602001919060010190612f05565b5b509050612f2e9190612f72565b5090565b815481835581811511612f5957818360005260206000209182019101612f589190612f72565b5b505050565b602060405190810160405280600081525090565b612f9491905b80821115612f90576000816000905550600101612f78565b5090565b905600a165627a7a7230582007762c1352c78d133213dbb5b5b89bcafb37ef4b14ec12cb0c6b4abac3188e7e0029",
  "source": "pragma solidity ^0.4.18;\n\n\ncontract GameCards {\n\n    /// Lease record, store card tenants details\n    /// and lease details\n    struct LeaseCard {\n        uint id;\n        address tenant;\n        uint price;\n        uint untilBlock;\n        string title;\n        string url;\n        string image;\n    }\n\n    /// Record card details\n    struct CardDetails {\n        uint8 id;\n        uint price;\n        uint priceLease; // price per block\n        uint leaseDuration; // in block\n        bool availableBuy;\n        bool availableLease;\n        uint[] leaseList;\n        mapping(uint => LeaseCard) leaseCardStructs;\n    }\n\n    /// Record card\n    struct Card {\n        uint8 id;\n        address owner;\n        string title;\n        string url;\n        string image;\n        bool nsfw;\n    }\n\n    /// Users pending withdrawals\n    mapping(address => uint) public pendingWithdrawals;\n\n    mapping(uint8 => Card) public cardStructs; // random access by card key\n    uint8[] public cardList; // list of announce keys so we can enumerate them\n\n    mapping(uint8 => CardDetails) public cardDetailsStructs; // random access by card details key\n    uint8[] public cardDetailsList; // list of cards details keys so we can enumerate them\n\n    /// Initial card price\n    uint public initialCardPrice = 1 ether;\n\n    /// Owner cut (1%) . This cut only apply on a user-to-user card transaction\n    uint public ownerBuyCut = 100;\n    /// fluffyCat cut (10%)\n    uint public fluffyCatCut = 1000;\n\n    /// contractOwner can withdraw the funds\n    address public contractOwner;\n    /// fluffyCat address\n    address public fluffyCatAddress = 0x2c00A5013aA2E600663f7b197C98db73bA847e6d;\n\n    /// Contract constructor\n    function GameCards(address _contractOwner) public {\n        require(_contractOwner != address(0));\n        contractOwner = _contractOwner;\n    }\n\n    modifier onlyContractOwner() {\n        // Throws if called by any account other than the contract owner\n        require(msg.sender == contractOwner);\n        _;\n    }\n\n    modifier onlyCardOwner(uint8 cardId) {\n        // Throws if called by any account other than the card owner\n        require(msg.sender == cardStructs[cardId].owner);\n        _;\n    }\n\n    modifier onlyValidCard(uint8 cardId) {\n        // Throws if card is not valid\n        require(cardId >= 1 && cardId <= 100);\n        _;\n    }\n\n    /// Return cardList array\n    function getCards() public view returns(uint8[]) {\n        uint8[] memory result = new uint8[](cardList.length);\n        uint8 counter = 0;\n        for (uint8 i = 0; i < cardList.length; i++) {\n            result[counter] = i;\n            counter++;\n        }\n        return result;\n    }\n\n    /// Return cardDetailsList array\n    function getCardsDetails() public view returns(uint8[]) {\n        uint8[] memory result = new uint8[](cardDetailsList.length);\n        uint8 counter = 0;\n        for (uint8 i = 0; i < cardDetailsList.length; i++) {\n            result[counter] = i;\n            counter++;\n        }\n        return result;\n    }\n\n    /// Return card details by id\n    function getCardDetails(uint8 cardId) public view onlyValidCard(cardId)\n        returns (uint8 id, uint price, uint priceLease, uint leaseDuration, bool availableBuy, bool availableLease) {\n            bool _buyAvailability;\n            if (cardDetailsStructs[cardId].id == 0 || cardDetailsStructs[cardId].availableBuy) {\n                _buyAvailability = true;\n            }\n\n            CardDetails storage detail = cardDetailsStructs[cardId];\n            return (\n                detail.id,\n                detail.price,\n                detail.priceLease,\n                detail.leaseDuration,\n                _buyAvailability,\n                detail.availableLease\n                );\n        }\n\n    /// Return card by id\n    function getCard(uint8 cardId) public view onlyValidCard(cardId)\n        returns (uint8 id, address owner, string title, string url, string image, bool nsfw) {\n            Card storage card = cardStructs[cardId];\n            id = card.id;\n            owner = card.owner;\n            title = card.title;\n            url = card.url;\n            image = card.image;\n            nsfw = card.nsfw;\n        }\n\n    /// This is called on the initial buy card, user to user buy is at buyCard()\n    /// Amount is sent to contractOwner balance and fluffycat get 10% of this amount\n    function initialBuyCard(uint8 cardId, string title, string url, string image) public\n        onlyValidCard(cardId)\n        payable\n        returns (bool success)\n    {\n        // Check sent amount\n        uint price = computeInitialPrice(cardId);\n        require(msg.value >= price);\n        // If owner is 0x0, then we are sure that\n        // this is the initial buy\n        require(cardStructs[cardId].owner == address(0));\n\n        // Fill card\n        _fillCardStruct(cardId, msg.sender, title, url, image);\n        // Set nsfw flag to false\n        cardStructs[cardId].nsfw = false;\n        // Contract credit 10% of price to FluffyCat\n        _applyShare(contractOwner, fluffyCatAddress, fluffyCatCut);\n        // Initialize card details\n        _initCardDetails(cardId, price);\n        // Add the card to cardList\n        cardList.push(cardId);\n        return true;\n    }\n\n    /// Perform a user to user buy transaction\n    /// Contract owner takes 1% cut on each of this transaction\n    function buyCard(uint8 cardId, string title, string url, string image) public\n        onlyValidCard(cardId)\n        payable\n        returns (bool success)\n    {\n        // Check that this is not an initial buy, i.e. that the\n        // card belongs to someone\n        require(cardStructs[cardId].owner != address(0));\n        // Check if card is on sale\n        require(cardDetailsStructs[cardId].availableBuy);\n        // Check sent amount\n        uint price = cardDetailsStructs[cardId].price;\n        require(msg.value >= price);\n\n        address previousOwner = cardStructs[cardId].owner;\n        // Take 1% cut on buy\n        _applyShare(previousOwner, contractOwner, ownerBuyCut);\n        // Fill card\n        _fillCardStruct(cardId, msg.sender, title, url, image);\n        // Set nsfw flag to false\n        cardStructs[cardId].nsfw = false;\n        // Disable sell status\n        cardDetailsStructs[cardId].availableBuy = false;\n        return true;\n    }\n\n    /// Allow card owner to edit his card informations\n    function editCard(uint8 cardId, string title, string url, string image) public\n        onlyValidCard(cardId)\n        onlyCardOwner(cardId)\n        returns (bool success)\n    {\n        // Fill card\n        _fillCardStruct(cardId, msg.sender, title, url, image);\n        // Disable sell status\n        return true;\n    }\n\n    /// Allow card owner to set his card on sale at specific price\n    function sellCard(uint8 cardId, uint price) public\n        onlyValidCard(cardId)\n        onlyCardOwner(cardId)\n        returns (bool success)\n    {\n        cardDetailsStructs[cardId].price = price;\n        cardDetailsStructs[cardId].availableBuy = true;\n        return true;\n    }\n\n    /// Allow card owner to cancel sell offer\n    function cancelSellCard(uint8 cardId) public\n        onlyValidCard(cardId)\n        onlyCardOwner(cardId)\n        returns (bool success)\n    {\n        cardDetailsStructs[cardId].availableBuy = false;\n        return true;\n    }\n\n    /// Allow card owner to set his card on lease at fixed price per block and duration\n    function setLeaseCard(uint8 cardId, uint priceLease, uint leaseDuration) public\n        onlyValidCard(cardId)\n        onlyCardOwner(cardId)\n        returns (bool success)\n    {\n        // Card cannot be on sale when setting lease\n        // cancelSellCard() first\n        require(!cardDetailsStructs[cardId].availableBuy);\n        // Card cannot be set on lease while currently leasing\n        uint _lastLeaseId = getCardLeaseLength(cardId);\n        uint _until = cardDetailsStructs[cardId].leaseCardStructs[_lastLeaseId].untilBlock;\n        require(_until < block.number);\n\n        cardDetailsStructs[cardId].priceLease = priceLease;\n        cardDetailsStructs[cardId].availableLease = true;\n        cardDetailsStructs[cardId].leaseDuration = leaseDuration;\n        return true;\n    }\n\n    /// Allow card owner to cancel lease offer\n    /// Note that this do not interrupt current lease if any\n    function cancelLeaseOffer(uint8 cardId) public\n        onlyValidCard(cardId)\n        onlyCardOwner(cardId)\n        returns (bool success)\n    {\n        cardDetailsStructs[cardId].availableLease = false;\n        return true;\n    }\n\n    /// Allow future tenant to lease a card\n    function leaseCard(uint8 cardId, string title, string url, string image) public\n        onlyValidCard(cardId)\n        payable\n        returns (bool success)\n    {\n        CardDetails storage details = cardDetailsStructs[cardId];\n        // Check that card is avaible to lease\n        require(details.availableLease);\n        // Get price (per block) and leaseDuration (block)\n        uint price = details.priceLease;\n        uint leaseDuration = details.leaseDuration;\n        uint totalAmount = price * leaseDuration;\n        // Check that amount sent is sufficient\n        require(msg.value >= totalAmount);\n        // Get new lease id\n        uint leaseId = getCardLeaseLength(cardId) + 1;\n        // Get the block number of lease end\n        uint untilBlock = block.number + leaseDuration;\n        // Take 1% cut on lease\n        Card storage card = cardStructs[cardId];\n        address _cardOwner = card.owner;\n        _applyShare(_cardOwner, contractOwner, ownerBuyCut);\n        // Fill leaseCardStructs\n        details.leaseCardStructs[leaseId].id = leaseId;\n        details.leaseCardStructs[leaseId].tenant = msg.sender;\n        details.leaseCardStructs[leaseId].price = totalAmount;\n        details.leaseCardStructs[leaseId].untilBlock = untilBlock;\n        details.leaseCardStructs[leaseId].title = title;\n        details.leaseCardStructs[leaseId].url = url;\n        details.leaseCardStructs[leaseId].image = image;\n        // Leases are now unavailable for this card\n        details.availableLease = false;\n        // Add lease to leases list of correspondant cardDetails\n        details.leaseList.push(leaseId);\n        return true;\n    }\n\n    /// Get last lease from a card\n    function getLastLease(uint8 cardId) public view\n        returns(uint leaseIndex, address tenant, uint untilBlock, string title, string url, string image)\n    {\n        uint _leaseIndex = getCardLeaseLength(cardId);\n        return getLease(cardId, _leaseIndex);\n    }\n\n    /// Get lease from card\n    function getLease(uint8 cardId, uint leaseId) public view\n        returns(uint leaseIndex, address tenant, uint untilBlock, string title, string url, string image)\n    {\n        return(\n            cardDetailsStructs[cardId].leaseCardStructs[leaseId].id,\n            cardDetailsStructs[cardId].leaseCardStructs[leaseId].tenant,\n            cardDetailsStructs[cardId].leaseCardStructs[leaseId].untilBlock,\n            cardDetailsStructs[cardId].leaseCardStructs[leaseId].title,\n            cardDetailsStructs[cardId].leaseCardStructs[leaseId].url,\n            cardDetailsStructs[cardId].leaseCardStructs[leaseId].image\n        );\n    }\n\n    /// Get lease list from a card\n    function getCardLeaseLength(uint8 cardId) public view\n        returns(uint cardLeasesCount)\n    {\n        return(cardDetailsStructs[cardId].leaseList.length);\n    }\n\n    /// Transfer the ownership of a card\n    function transferCardOwnership(address to, uint8 cardId)\n        public\n        onlyCardOwner(cardId)\n        returns (bool success)\n    {\n        // Transfer card ownership\n        cardStructs[cardId].owner = to;\n        return true;\n    }\n\n    /// Return balance from sender\n    function getBalance()\n        public\n        view\n        returns (uint amount)\n    {\n        return pendingWithdrawals[msg.sender];\n    }\n\n    /// Allow address to withdraw their balance\n    function withdraw()\n        public\n        returns (bool)\n    {\n        uint amount = pendingWithdrawals[msg.sender];\n        // Remember to zero the pending refund before\n        // sending to prevent re-entrancy attacks\n        pendingWithdrawals[msg.sender] = 0;\n        msg.sender.transfer(amount);\n        return true;\n    }\n\n    /// Compute initial card price (in wei)\n    function computeInitialPrice(uint8 cardId) public view\n        onlyValidCard(cardId)\n        returns (uint price)\n    {\n        // 1 ether - 0.01 ether * (cardId - 1)\n        return initialCardPrice - ((initialCardPrice / 100) * (uint256(cardId) - 1));\n    }\n\n    /// Allow contract owner to set NSFW flag on a card\n    function setNSFW(uint8 cardId, bool flag) public\n        onlyValidCard(cardId)\n        onlyContractOwner()\n        returns (bool success)\n    {\n        cardStructs[cardId].nsfw = flag;\n        return true;\n    }\n\n    /// Fill Card struct\n    function _fillCardStruct(uint8 _cardId, address _owner, string _title, string _url, string _image) internal\n        returns (bool success)\n    {\n        cardStructs[_cardId].owner = _owner;\n        cardStructs[_cardId].title = _title;\n        cardStructs[_cardId].url = _url;\n        cardStructs[_cardId].image = _image;\n        return true;\n    }\n\n    /// Initialize sell card for future\n    function _initCardDetails(uint8 cardId, uint price) internal\n        returns (bool success)\n    {\n        // priceLease, leaseDuration set to default value(= 0)\n        cardDetailsStructs[cardId].id = cardId;\n        cardDetailsStructs[cardId].price = price;\n        cardDetailsStructs[cardId].availableBuy = false;\n        cardDetailsStructs[cardId].availableLease = false;\n        cardDetailsList.push(cardId);\n        return true;\n    }\n\n    /// Send split amounts to respective balances\n    function _applyShare(address _seller, address _auctioneer, uint _cut) internal\n        returns (bool success)\n    {\n        // Compute share\n        uint256 auctioneerCut = _computeCut(msg.value, _cut);\n        uint256 sellerProceeds = msg.value - auctioneerCut;\n        // Credit seller balance\n        pendingWithdrawals[_seller] += sellerProceeds;\n        // Credit auctionner balance\n        pendingWithdrawals[_auctioneer] += auctioneerCut;\n        return true;\n    }\n\n    /// Compute _cut from a _price\n    function _computeCut(uint256 _price, uint256 _cut) internal pure\n        returns (uint256)\n    {\n        return _price * _cut / 10000;\n    }\n}\n",
  "sourcePath": "/Users/nathan/Projects/smart-contracts/gamecards/contracts/GameCards.sol",
  "compiler": {
    "name": "solc",
    "version": "0.4.19+commit.c4cbbb05.Emscripten.clang"
  },
  "schemaVersion": "1.0.1",
  "updatedAt": "2018-02-20T11:17:17.647Z"
}